{
  "contractName": "SimpleTransaction",
  "abi": [
    {
      "inputs": [],
      "stateMutability": "nonpayable",
      "type": "constructor"
    },
    {
      "anonymous": false,
      "inputs": [
        {
          "indexed": true,
          "internalType": "address",
          "name": "from",
          "type": "address"
        },
        {
          "indexed": true,
          "internalType": "address",
          "name": "to",
          "type": "address"
        },
        {
          "indexed": false,
          "internalType": "uint256",
          "name": "value",
          "type": "uint256"
        }
      ],
      "name": "Transfer",
      "type": "event"
    },
    {
      "inputs": [],
      "name": "owner",
      "outputs": [
        {
          "internalType": "address",
          "name": "",
          "type": "address"
        }
      ],
      "stateMutability": "view",
      "type": "function",
      "constant": true
    },
    {
      "stateMutability": "payable",
      "type": "receive",
      "payable": true
    },
    {
      "inputs": [
        {
          "internalType": "address payable",
          "name": "_to",
          "type": "address"
        }
      ],
      "name": "transfer",
      "outputs": [],
      "stateMutability": "payable",
      "type": "function",
      "payable": true
    }
  ],
  "bytecode": "0x608060405234801561001057600080fd5b50336000806101000a81548173ffffffffffffffffffffffffffffffffffffffff021916908373ffffffffffffffffffffffffffffffffffffffff16021790555061036f806100606000396000f3fe60806040526004361061002d5760003560e01c80631a695230146100395780638da5cb5b1461005557610034565b3661003457005b600080fd5b610053600480360381019061004e91906101f9565b610080565b005b34801561006157600080fd5b5061006a610172565b6040516100779190610247565b60405180910390f35b600034116100c3576040517f08c379a00000000000000000000000000000000000000000000000000000000081526004016100ba906102e5565b60405180910390fd5b8073ffffffffffffffffffffffffffffffffffffffff166108fc349081150290604051600060405180830381858888f19350505050158015610109573d6000803e3d6000fd5b508073ffffffffffffffffffffffffffffffffffffffff163373ffffffffffffffffffffffffffffffffffffffff167fddf252ad1be2c89b69c2b068fc378daa952ba7f163c4a11628f55a4df523b3ef34604051610167919061031e565b60405180910390a350565b60008054906101000a900473ffffffffffffffffffffffffffffffffffffffff1681565b600080fd5b600073ffffffffffffffffffffffffffffffffffffffff82169050919050565b60006101c68261019b565b9050919050565b6101d6816101bb565b81146101e157600080fd5b50565b6000813590506101f3816101cd565b92915050565b60006020828403121561020f5761020e610196565b5b600061021d848285016101e4565b91505092915050565b60006102318261019b565b9050919050565b61024181610226565b82525050565b600060208201905061025c6000830184610238565b92915050565b600082825260208201905092915050565b7f5472616e7366657220616d6f756e74206d75737420626520677265617465722060008201527f7468616e207a65726f0000000000000000000000000000000000000000000000602082015250565b60006102cf602983610262565b91506102da82610273565b604082019050919050565b600060208201905081810360008301526102fe816102c2565b9050919050565b6000819050919050565b61031881610305565b82525050565b6000602082019050610333600083018461030f565b9291505056fea26469706673582212202aa8f3f9d4d4d307b1503f18659907a845fa5a13a83290624617ede7925ad2c364736f6c63430008130033",
  "immutableReferences": {},
  "source": "// SPDX-License-Identifier: MIT\r\npragma solidity 0.8.19;\r\n\r\ncontract SimpleTransaction {\r\n    address public owner;\r\n\r\n    event Transfer(address indexed from, address indexed to, uint256 value);\r\n\r\n    constructor() {\r\n        owner = msg.sender;\r\n    }\r\n\r\n    function transfer(address payable _to) public payable {\r\n        require(msg.value > 0, \"Transfer amount must be greater than zero\");\r\n        _to.transfer(msg.value);\r\n        emit Transfer(msg.sender, _to, msg.value);\r\n    }\r\n\r\n    // Fallback function to accept Ether\r\n    receive() external payable {}\r\n}\r\n",
  "sourcePath": "C:\\Users\\ADMIN 2023\\Ethereum_transact\\contracts\\SimpleTransaction.sol",
  "compiler": {
    "name": "solc",
    "version": "0.8.19+commit.7dd6d404.Emscripten.clang"
  },
  "schemaVersion": "3.4.16",
  "updatedAt": "2024-09-10T03:30:07.718Z",
  "networkType": "ethereum",
  "devdoc": {
    "kind": "dev",
    "methods": {},
    "version": 1
  },
  "userdoc": {
    "kind": "user",
    "methods": {},
    "version": 1
  }
}